:020000040800F2
:1000000000280020190D0008BD0C0008C30C0008D2
:10001000C90C0008CF0C0008D50C00080000000037
:10002000000000000000000000000000DB0C0008E1
:10003000E70C000800000000F30C0008FF0C0008AB
:10004000610D0008610D0008610D0008610D0008D8
:10005000610D0008610D0008610D0008610D0008C8
:10006000610D0008610D0008610D0008610D0008B8
:10007000610D0008610D0008610D0008610D0008A8
:10008000610D0008610D0008610D0008610D000898
:10009000610D0008610D0008610D0008610D000888
:1000A000610D0008610D0008610D0008610D000878
:1000B000610D0008610D000800000000610D0008DE
:1000C000610D00080000000000000000610D000844
:1000D00000000000610D0008610D00080000000034
:1000E000610D0008610D0008610D000800000000AE
:1000F0000000000000000000000000000000000000
:0C01000000000000000000005FF808F1A3
:10010C0010B5054C237833B9044B13B10448AFF345
:10011C0000800123237010BD0C00002000000000A3
:10012C006C1B000808B5034B1BB103490348AFF324
:10013C00008008BD00000000100000206C1B0008AF
:10014C0080B582B000AF7860C7F800C07B68002B28
:10015C003ED101222021D44801F0E2F801224021B5
:10016C00D14801F0DDF801228021CF4801F0D8F808
:10017C0001224FF48071CC4801F0D2F801224FF4E7
:10018C000071C94801F0CCF801224FF48061C648D7
:10019C0001F0C6F801224FF40061C34801F0C0F829
:1001AC0001224FF48051C04801F0BAF801224FF4FB
:1001BC000051BD4801F0B4F801224FF48041BA4817
:1001CC0001F0AEF801224FF40041B74801F0A8F855
:1001DC007B68012B3ED101221021B34801F0A0F81D
:1001EC0001224021B04801F09BF801228021AE4849
:1001FC0001F096F801224FF48071AB4801F090F8B1
:10020C0001224FF40071A84801F08AF801224FF442
:10021C008061A54801F084F801224FF40061A248E6
:10022C0001F07EF801224FF480519F4801F078F8DC
:10023C0001224FF400519C4801F072F801224FF456
:10024C008041994801F06CF801224FF40041964826
:10025C0001F066F87B68022B3ED1012210219248F6
:10026C0001F05EF8012220218F4801F059F801229B
:10027C0080218D4801F054F801224FF480718A4896
:10028C0001F04EF801224FF40071874801F048F854
:10029C0001224FF48061844801F042F801224FF4AE
:1002AC000061814801F03CF801224FF480517E48F6
:1002BC0001F036F801224FF400517B4801F030F880
:1002CC0001224FF48041784801F02AF801224FF4C2
:1002DC000041754801F024F87B68032B3ED10122C4
:1002EC001021714801F01CF8012220216E4801F008
:1002FC0017F8012240216C4801F012F801224FF44A
:10030C008071694801F00CF801224FF400716648C5
:10031C0001F006F801224FF48061634801F000F807
:10032C0001224FF40061604800F0FAFF01224FF403
:10033C0080515D4800F0F4FF01224FF400515A48FF
:10034C0000F0EEFF01224FF48041574800F0E8FF27
:10035C0001224FF40041544800F0E2FF7B68042B6B
:10036C003DD101221021504800F0DAFF012220215A
:10037C004D4800F0D5FF012240214B4800F0D0FF42
:10038C0001228021484800F0CBFF01224FF400717C
:10039C00454800F0C5FF01224FF48061424800F04F
:1003AC00BFFF01224FF400613F4800F0B9FF01226A
:1003BC004FF480513C4800F0B3FF01224FF4005140
:1003CC00394800F0ADFF01224FF48041364800F06F
:1003DC00A7FF01224FF40041334800F0A1FF7B68D6
:1003EC00052B3DD1012210212F4800F099FF01224D
:1003FC0020212D4800F094FF012240212A4800F0D2
:10040C008FFF01228021284800F08AFF01224FF43F
:10041C008071254800F084FF01224FF4806122484E
:10042C0000F07EFF01224FF400611F4800F078FFBE
:10043C0001224FF480511C4800F072FF01224FF44E
:10044C000051194800F06CFF01224FF4804116480E
:10045C0000F066FF01224FF40041134800F060FFEA
:10046C007B68062B40D1012210210F4800F058FF69
:10047C00012220210C4800F053FF012240210A48A0
:10048C0000F04EFF01228021074800F049FF0122B5
:10049C004FF48071044800F043FF01224FF40071C7
:1004AC00014800F03DFF01E00008014001224FF43B
:1004BC000061B24800F034FF01224FF48051AF4884
:1004CC0000F02EFF01224FF40051AC4800F028FF41
:1004DC0001224FF48041A94800F022FF01224FF481
:1004EC000041A64800F01CFF7B68072B3DD1012280
:1004FC001021A24800F014FF012220219F4800F097
:10050C000FFF012240219D4800F00AFF01228021AB
:10051C009A4800F005FF01224FF48071974800F0D3
:10052C00FFFE01224FF40071944800F0F9FE012205
:10053C004FF48061914800F0F3FE01224FF480519A
:10054C008E4800F0EDFE01224FF400518B4800F074
:10055C00E7FE01224FF48041884800F0E1FE0122C1
:10056C004FF40041854800F0DBFE7B68082B3DD141
:10057C0001221021814800F0D3FE012220217F4866
:10058C0000F0CEFE012240217C4800F0C9FE012281
:10059C0080217A4800F0C4FE01224FF48071774824
:1005AC0000F0BEFE01224FF40071744800F0B8FE5A
:1005BC0001224FF48061714800F0B2FE01224FF429
:1005CC0000616E4800F0ACFE01224FF400516B4804
:1005DC0000F0A6FE01224FF48041684800F0A0FE16
:1005EC0001224FF40041654800F09AFE7B68092B0C
:1005FC003DD101221021614800F092FE0122202100
:10060C005E4800F08DFE012240215C4800F088FE1F
:10061C0001228021594800F083FE01224FF48071A1
:10062C00564800F07DFE01224FF40071534800F053
:10063C0077FE01224FF48061504800F071FE0122D8
:10064C004FF400614D4800F06BFE01224FF48051D5
:10065C004A4800F065FE01224FF48041474800F003
:10066C005FFE01224FF40041444800F059FE7B68C4
:10067C000A2B3DD101221021404800F051FE0122ED
:10068C0020213E4800F04CFE012240213B4800F066
:10069C0047FE01228021394800F042FE01224FF42E
:1006AC008071364800F03CFE01224FF40071334853
:1006BC0000F036FE01224FF48061304800F030FE2D
:1006CC0001224FF400612D4800F02AFE01224FF464
:1006DC0080512A4800F024FE01224FF40051274893
:1006EC0000F01EFE01224FF40041244800F018FED9
:1006FC007B680B2B3DD101221021204800F010FE0D
:10070C00012220211D4800F00BFE012240211B4834
:10071C0000F006FE01228021184800F001FE0122A3
:10072C004FF48071154800F0FBFD01224FF400716D
:10073C00124800F0F5FD01224FF480610F4800F0E3
:10074C00EFFD01224FF400610C4800F0E9FD01229D
:10075C004FF48051094800F0E3FD01224FF40051A1
:10076C00064800F0DDFD01224FF48041034800F003
:10077C00D7FD00BF0837BD4680BD00BF0008014053
:10078C0080B584B000AF07F118033B6000F0E4FAC9
:10079C0000F0E6F900F020FA0023FB600023BB60B8
:1007AC0000237B60FB683B2B04DDBB680133BB6023
:1007BC000023FB60BB683B2B04DD7B6801337B6053
:1007CC000023BB607B680B2B01DD00237B603B4669
:1007DC009C46FA68B968786800F008F8FB68013341
:1007EC00FB604FF47A7000F019FBDBE780B584B046
:1007FC0000AFF860B9607A606346C7F800C09C46E9
:10080C00F868FFF79DFCFB68002B04D10022102137
:10081C00B14800F085FDFB68012B04D1002220219A
:10082C00AD4800F07DFDFB68022B04D10022402175
:10083C00A94800F075FDFB68032B04D10022802130
:10084C00A54800F06DFDFB68042B05D100224FF488
:10085C008071A14800F064FDFB68052B05D10022D6
:10086C004FF400719C4800F05BFDFB68062B05D132
:10087C0000224FF48061984800F052FDFB68072B72
:10088C0005D100224FF40061934800F049FDFB684C
:10089C00082B05D100224FF480518F4800F040FD09
:1008AC00FB68092B05D100224FF400518A4800F057
:1008BC0037FDFB680A2B05D100224FF48041864896
:1008CC0000F02EFDFB680B2B05D100224FF40041EC
:1008DC00814800F025FDBB68002B0ADBBB68042BAC
:1008EC0007DCFB68002B04D0002210217A4800F0B2
:1008FC0017FDBB68042B0ADDBB68092B07DCFB6802
:10090C00012B04D000222021734800F009FDBB68A4
:10091C00092B0ADDBB680E2B07DCFB68022B04D00D
:10092C00002240216C4800F0FBFCBB680E2B0ADD5A
:10093C00BB68132B07DCFB68032B04D0002280213F
:10094C00654800F0EDFCBB68132B0BDDBB68182B66
:10095C0008DCFB68042B05D000224FF480715E4844
:10096C0000F0DEFCBB68182B0BDDBB681D2B08DC14
:10097C00FB68052B05D000224FF40071564800F09F
:10098C00CFFCBB681D2B0BDDBB68222B08DCFB6886
:10099C00062B05D000224FF480614F4800F0C0FCBC
:1009AC00BB68222B0BDDBB68272B08DCFB68072BF5
:1009BC0005D000224FF40061474800F0B1FCBB6841
:1009CC00272B0BDDBB682C2B08DCFB68082B05D018
:1009DC0000224FF48051404800F0A2FCBB682C2B45
:1009EC000BDDBB68312B08DCFB68092B05D0002222
:1009FC004FF40051384800F093FCBB68312B0BDDF1
:100A0C00BB68362B08DCFB680A2B05D000224FF4A0
:100A1C008041314800F084FCBB68362B0BDDBB6891
:100A2C003B2B08DCFB680B2B05D000224FF400415C
:100A3C00294800F075FC7B68002B07DB7B68042BD6
:100A4C0004DC00221021244800F06AFC7B68042B93
:100A5C0007DD7B68092B04DC002220211E4800F0F6
:100A6C005FFC7B68092B07DD7B680E2B04DC002206
:100A7C004021194800F054FC7B680E2B07DD7B6885
:100A8C00132B04DC00228021134800F049FC7B6806
:100A9C00132B08DD7B68182B05DC00224FF48071CA
:100AAC000D4800F03DFC7B68182B08DD7B681D2B86
:100ABC0005DC00224FF40071074800F031FC7B6824
:100ACC001D2B0BDD7B68222B08DC00224FF4806190
:100ADC00014800F025FC01E0000801407B68222B56
:100AEC0008DD7B68272B05DC00224FF400611B48D6
:100AFC0000F016FC7B68272B08DD7B682C2B05DCB3
:100B0C0000224FF48051154800F00AFC7B682C2B16
:100B1C0008DD7B68312B05DC00224FF400510F48B7
:100B2C0000F0FEFB7B68312B08DD7B68362B05DC87
:100B3C0000224FF48041094800F0F2FB7B68362B11
:100B4C0008DD7B683B2B05DC00224FF40041034899
:100B5C0000F0E6FB00BF1037BD4680BD0008014029
:100B6C0080B590B000AF07F1180328220021184679
:100B7C0000F0EEFF3B1D00221A605A609A60DA60AA
:100B8C001A610223BB610123BB621023FB620023A9
:100B9C007B6307F11803184600F0DAFB0346002BC1
:100BAC0001D000F04DF80F237B600023BB600023C5
:100BBC00FB6000233B6100237B613B1D0021184639
:100BCC0000F046FE0346002B01D000F039F800BFC0
:100BDC004037BD4680BD000080B586B000AF07F140
:100BEC00080300221A605A609A60DA60124B9B6903
:100BFC00114A43F0040393610F4B9B6903F0040308
:100C0C007B607B6800224FF6F0710C4800F088FB8B
:100C1C004FF6F073BB600123FB6000233B610223A2
:100C2C007B6107F108031946044800F0FFF900BF87
:100C3C001837BD4680BD00BF0010024000080140BF
:100C4C0080B400AF72B600BFFEE7000080B485B080
:100C5C0000AF154B9B69144A43F001039361124B8F
:100C6C009B6903F00103BB60BB680F4BDB690E4A49
:100C7C0043F08053D3610C4BDB6903F080537B60F2
:100C8C007B680A4B5B68FB60FB6823F0E063FB60EE
:100C9C00FB6843F08063FB60044AFB68536000BF51
:100CAC001437BD4680BC7047001002400000014064
:100CBC0080B400AFFEE780B400AFFEE780B400AFB5
:100CCC00FEE780B400AFFEE780B400AFFEE780B46F
:100CDC0000AF00BFBD4680BC704780B400AF00BF02
:100CEC00BD4680BC704780B400AF00BFBD4680BC21
:100CFC00704780B500AF00F075F800BF80BD80B4C0
:100D0C0000AF00BFBD4680BC70470000FFF7F7FF87
:100D1C000B480C490C4A002302E0D458C45004334D
:100D2C00C4188C42F9D3094A094C002301E0136022
:100D3C000432A242FBD300F0E7FEFFF721FD70471F
:100D4C00000000200C000020B01B00080C0000204C
:100D5C002C000020FEE7000080B500AF084B1B689C
:100D6C00074A43F010031360032000F02BF90F2007
:100D7C0000F008F8FFF76AFF0023184680BD00BF9B
:100D8C000020024080B582B000AF7860124B1A6828
:100D9C00124B1B7819464FF47A73B3FBF1F3B2FB89
:100DAC00F3F3184600F035F90346002B01D001236C
:100DBC000EE07B680F2B0AD8002279684FF0FF30C9
:100DCC0000F00BF9064A7B681360002300E0012356
:100DDC0018460837BD4680BD0000002008000020E2
:100DEC000400002080B400AF054B1B781A46054B5D
:100DFC001B681344034A136000BFBD4680BC704798
:100E0C00080000202800002080B400AF024B1B68B3
:100E1C001846BD4680BC70472800002080B584B0C1
:100E2C0000AF7860FFF7F0FFB8607B68FB60FB6891
:100E3C00B3F1FF3F05D00A4B1B781A46FB681344ED
:100E4C00FB6000BFFFF7E0FF0246BB68D31AFA68ED
:100E5C009A42F7D800BF00BF1037BD4680BD00BF17
:100E6C000800002080B485B000AF78607B6803F088
:100E7C000703FB600C4BDB68BB60BA684FF6FF03E3
:100E8C001340BB60FB681A02BB68134343F0BF639B
:100E9C0043F40033BB60044ABB68D36000BF143713
:100EAC00BD4680BC704700BF00ED00E080B400AFD1
:100EBC00044BDB681B0A03F007031846BD4680BCD5
:100ECC00704700BF00ED00E080B483B000AF034674
:100EDC003960FB7197F90730002B0ADB3B68DAB2FB
:100EEC000C4997F907301201D2B20B4483F8002356
:100EFC000AE03B68DAB20849FB7903F00F03043BC4
:100F0C001201D2B20B441A7600BF0C37BD4680BC1E
:100F1C00704700BF00E100E000ED00E080B489B054
:100F2C0000AFF860B9607A60FB6803F00703FB61FF
:100F3C00FB69C3F10703042B28BF0423BB61FB69C6
:100F4C000433062B02D9FB69033B00E000237B61D1
:100F5C004FF0FF32BB6902FA03F3DA43BB681A4065
:100F6C007B699A404FF0FF317B6901FA03F3D94357
:100F7C007B680B40134318462437BD4680BC704732
:100F8C0080B582B000AF78607B68013BB3F1807FA5
:100F9C0001D301230FE00A4A7B68013B53600F2108
:100FAC004FF0FF30FFF790FF054B00229A60044B87
:100FBC0007221A60002318460837BD4680BD00BFC3
:100FCC0010E000E080B582B000AF78607868FFF781
:100FDC0049FF00BF0837BD4680BD80B586B000AF65
:100FEC000346B9607A60FB7300237B61FFF75EFFF9
:100FFC0078617A68B9687869FFF790FF024697F9CB
:10100C000F3011461846FFF75FFF00BF1837BD467B
:10101C0080BD80B582B000AF78607868FFF7B0FF14
:10102C00034618460837BD4680BD000080B48BB01F
:10103C0000AF7860396000237B6200233B6248E19B
:10104C0001227B6A02FA03F3FB613B681B68FA69B5
:10105C001340BB61BA69FB699A4240F037813B6827
:10106C005B68A34A93425ED0A14A934275D8A14AC9
:10107C00934258D09F4A93426FD89F4A934252D082
:10108C009D4A934269D89D4A93424CD09B4A9342C5
:10109C0063D89B4A934246D0994A93425DD8122B0F
:1010AC002AD8122B59D801A252F823F03311000878
:1010BC000D1100081F1100086111000867110008CC
:1010CC006711000867110008671100086711000814
:1010DC006711000867110008671100086711000804
:1010EC0067110008671100086711000867110008F4
:1010FC001511000829110008824A934213D02CE0E4
:10110C003B68DB683B6229E03B68DB6804333B628D
:10111C0024E03B68DB6808333B621FE03B68DB681C
:10112C000C333B621AE03B689B68002B02D1042312
:10113C003B6213E03B689B68012B05D108233B62A3
:10114C007B68FA691A6109E008233B627B68FA69DB
:10115C005A6103E000233B6200E000BFBB69FF2B38
:10116C0001D87B6801E07B6804337B61BB69FF2B92
:10117C0002D87B6A9B0002E07B6A083B9B003B61C8
:10118C007B691A680F213B6901FA03F3DB431A40B0
:10119C00396A3B6901FA03F31A437B691A603B68AD
:1011AC005B6803F08053002B00F09080564B9B69DA
:1011BC00554A43F001039361534B9B6903F00103C0
:1011CC00BB60BB68514A7B6A9B08023352F82330E0
:1011DC00FB607B6A03F003039B000F2202FA03F30C
:1011EC00DB43FA681340FB607B68494A93420DD09D
:1011FC007B68484A934207D07B68474A934201D1A7
:10120C00022304E0032302E0012300E000237A6AB6
:10121C0002F0030292009340FA681343FB603B49CF
:10122C007B6A9B080233FA6841F823203B685B68B1
:10123C0003F48013002B06D0384B9A683749BB69EE
:10124C0013438B6006E0354B9A68BB69DB4333492B
:10125C0013408B603B685B6803F40013002B06D0D3
:10126C002E4BDA682D49BB691343CB6006E02B4B40
:10127C00DA68BB69DB4329491340CB603B685B6888
:10128C0003F40033002B06D0244B5A682349BB6966
:10129C0013434B6006E0214B5A68BB69DB431F4983
:1012AC0013404B603B685B6803F48033002B06D023
:1012BC001A4B1A681949BB6913430B6006E0174BAC
:1012CC001A68BB69DB43154913400B607B6A013319
:1012DC007B623B681A687B6A22FA03F3002B7FF46B
:1012EC00AFAE00BF00BF2C37BD4680BC704700BFFF
:1012FC0000003210000031100000221000002110FC
:10130C0000001210000011100010024000000140FB
:10131C0000080140000C0140001001400004014095
:10132C0080B483B000AF78600B467B8013467B7033
:10133C007B78002B03D07A887B681A6103E07B886A
:10134C001A047B681A6100BF0C37BD4680BC70471D
:10135C0080B586B000AF78607B68002B01D101238B
:10136C006CE27B681B6803F00103002B00F08780A4
:10137C00924B5B6803F00C03042B0CD08F4B5B6817
:10138C0003F00C03082B12D18C4B5B6803F48033F5
:10139C00B3F5803F0BD1894B1B6803F40033002B52
:1013AC006CD07B685B68002B68D1012346E27B68BC
:1013BC005B68B3F5803F06D1804B1B687F4A43F4D2
:1013CC00803313602EE07B685B68002B0CD17B4B69
:1013DC001B687A4A23F480331360784B1B68774A76
:1013EC0023F4802313601DE07B685B68B3F5A02FAA
:1013FC000CD1724B1B68714A43F4802313606F4B02
:10140C001B686E4A43F4803313600BE06B4B1B6814
:10141C006A4A23F480331360684B1B68674A23F4D1
:10142C00802313607B685B68002B13D0FFF7ECFC08
:10143C00386108E0FFF7E8FC02463B69D31A642BDD
:10144C0001D90323FAE15D4B1B6803F40033002B35
:10145C00F0D014E0FFF7D8FC386108E0FFF7D4FCBB
:10146C0002463B69D31A642B01D90323E6E1534BA3
:10147C001B6803F40033002BF0D100E000BF7B6845
:10148C001B6803F00203002B63D04C4B5B6803F02A
:10149C000C03002B0BD0494B5B6803F00C03082B9F
:1014AC001CD1464B5B6803F48033002B16D1434BA5
:1014BC001B6803F00203002B05D07B681B69012B12
:1014CC0001D00123BAE13D4B1B6823F0F8027B6885
:1014DC005B69DB00394913430B603AE07B681B699D
:1014EC00002B20D0364B01221A60FFF78DFC38619F
:1014FC0008E0FFF789FC02463B69D31A022B01D99D
:10150C0003239BE12D4B1B6803F00203002BF0D04F
:10151C002A4B1B6823F0F8027B685B69DB002749C8
:10152C0013430B6015E0264B00221A60FFF76CFC8E
:10153C00386108E0FFF768FC02463B69D31A022BBE
:10154C0001D903237AE11D4B1B6803F00203002B26
:10155C00F0D17B681B6803F00803002B3AD07B6842
:10156C009B69002B19D0174B01221A60FFF74CFC1A
:10157C00386108E0FFF748FC02463B69D31A022B9E
:10158C0001D903235AE10D4B5B6A03F00203002BD4
:10159C00F0D0012000F09AFA1CE00A4B00221A60ED
:1015AC00FFF732FC38610FE0FFF72EFC02463B6977
:1015BC00D31A022B08D9032340E100BF00100240CC
:1015CC0000004242800442429E4B5B6A03F00203DD
:1015DC00002BE9D17B681B6803F00403002B00F09F
:1015EC00A6800023FB75974BDB6903F08053002B1F
:1015FC000DD1944BDB69934A43F08053D361914BEB
:10160C00DB6903F08053BB60BB680123FB758E4B19
:10161C001B6803F48073002B18D18B4B1B688A4A10
:10162C0043F480731360FFF7EFFB386108E0FFF7BA
:10163C00EBFB02463B69D31A642B01D90323FDE073
:10164C00814B1B6803F48073002BF0D07B68DB6844
:10165C00012B06D17B4B1B6A7A4A43F001031362C0
:10166C002DE07B68DB68002B0CD1764B1B6A754A2E
:10167C0023F001031362734B1B6A724A23F00403B9
:10168C0013621CE07B68DB68052B0CD16D4B1B6A6D
:10169C006C4A43F0040313626A4B1B6A694A43F0B9
:1016AC00010313620BE0674B1B6A664A23F00103CC
:1016BC001362644B1B6A634A23F0040313627B6856
:1016CC00DB68002B15D0FFF79FFB38610AE0FFF7B2
:1016DC009BFB02463B69D31A41F28832934201D9F3
:1016EC000323ABE0574B1B6A03F00203002BEED035
:1016FC0014E0FFF789FB38610AE0FFF785FB02462F
:10170C003B69D31A41F28832934201D9032395E005
:10171C004C4B1B6A03F00203002BEED1FB7D012B1B
:10172C0005D1484BDB69474A23F08053D3617B6872
:10173C00DB69002B00F08180424B5B6803F00C03EB
:10174C00082B61D07B68DB69022B46D13F4B002212
:10175C001A60FFF759FB386108E0FFF755FB0246AA
:10176C003B69D31A022B01D9032367E0354B1B6865
:10177C0003F00073002BF0D17B681B6AB3F5803F3C
:10178C0008D1304B5B6823F400327B689B682D4991
:10179C0013434B602B4B5B6823F474127B68196A00
:1017AC007B685B6A0B43274913434B60274B012231
:1017BC001A60FFF729FB386108E0FFF725FB0246AA
:1017CC003B69D31A022B01D9032337E01D4B1B684D
:1017DC0003F00073002BF0D02FE01C4B00221A609A
:1017EC00FFF712FB386108E0FFF70EFB02463B697E
:1017FC00D31A022B01D9032320E0124B1B6803F0F0
:10180C000073002BF0D118E07B68DB69012B01D150
:10181C00012313E00B4B5B68FB60FB6803F4803225
:10182C007B681B6A9A4206D1FB6803F470127B68D2
:10183C005B6A9A4201D0012300E000231846183756
:10184C00BD4680BD00100240007000406000424266
:10185C0080B584B000AF786039607B68002B01D113
:10186C000123D0E06A4B1B6803F007033A689A42E5
:10187C0010D9674B1B6823F0070265493B6813437B
:10188C000B60634B1B6803F007033A689A4201D064
:10189C000123B8E07B681B6803F00203002B20D007
:1018AC007B681B6803F00403002B05D0594B5B6865
:1018BC00584A43F4E06353607B681B6803F00803E9
:1018CC00002B05D0534B5B68524A43F46053536072
:1018DC00504B5B6823F0F0027B689B684D491343C7
:1018EC004B607B681B6803F00103002B40D07B68C6
:1018FC005B68012B07D1474B1B6803F40033002BAB
:10190C0015D101237FE07B685B68022B07D1414B2B
:10191C001B6803F00073002B09D1012373E03D4BCE
:10192C001B6803F00203002B01D101236BE0394B40
:10193C005B6823F003027B685B68364913434B609A
:10194C00FFF762FAF8600AE0FFF75EFA0246FB68FE
:10195C00D31A41F28832934201D9032353E02D4B21
:10196C005B6803F00C027B685B689B009A42EBD1CE
:10197C00274B1B6803F007033A689A4210D2244B9A
:10198C001B6823F0070222493B6813430B60204B72
:10199C001B6803F007033A689A4201D0012332E036
:1019AC007B681B6803F00403002B08D0194B5B68A1
:1019BC0023F4E0627B68DB68164913434B607B6859
:1019CC001B6803F00803002B09D0124B5B6823F44F
:1019DC0060527B681B69DB000E4913434B6000F0BF
:1019EC0021F802460B4B5B681B0903F00F030A49F5
:1019FC00CB5C22FA03F3094A1360094B1B681846A7
:101A0C00FFF7C0F9002318461037BD4680BD00BF54
:101A1C000020024000100240841B0008000000203F
:101A2C000400002080B487B000AF0023FB600023CB
:101A3C00BB6000237B6100237B6000233B611E4B5A
:101A4C005B68FB60FB6803F00C03042B02D0082BD3
:101A5C0003D027E0194B3B6127E0FB689B0C03F09C
:101A6C000F03174AD35C7B60FB6803F48033002BB5
:101A7C0010D0114B5B685B0C03F00103114AD35C73
:101A8C00BB607B680D4A02FB03F2BB68B2FBF3F34D
:101A9C007B6104E07B680C4A02FB03F37B617B698E
:101AAC003B6102E0054B3B6100BF3B6918461C37AC
:101ABC00BD4680BC704700BF0010024000127A0087
:101ACC00941B0008A41B000800093D0080B485B0DD
:101ADC0000AF78600A4B1B680A4AA2FB03235B0A1F
:101AEC007A6802FB03F3FB6000BFFB685A1EFA60C6
:101AFC00002BF9D100BF00BF1437BD4680BC704726
:101B0C0000000020D34D621070B500260C4D0D4C1A
:101B1C00641BA410A64209D100F022F800260A4D3D
:101B2C000A4C641BA410A64205D170BD55F8043BA9
:101B3C0098470136EEE755F8043B98470136F2E733
:101B4C00A81B0008A81B0008A81B0008AC1B000859
:101B5C0003460244934200D1704703F8011BF9E796
:101B6C00F8B500BFF8BC08BC9E467047F8B500BF7E
:081B7C00F8BC08BC9E4670474E
:101B84000000000000000000010203040607080929
:101B940002030405060708090A0B0C0D0E0F1010AA
:041BA400010200003A
:041BA80031010008FF
:041BAC000D0100081F
:0C1BB0000024F400100000000100000000
:0400000508000D19C9
:00000001FF
